:020000040800F2
:10000000FF4F0020D91F0008691F00086B1F000860
:100010006D1F00086F1F0008711F0008000000001E
:10002000000000000000000000000000731F000836
:10003000751F000800000000771F0008351B00082E
:10004000212000082120000821200008212000088C
:10005000212000082120000821200008212000087C
:10006000212000082120000821200008212000086C
:10007000212000082120000821200008212000085C
:10008000212000082120000821200008212000084C
:10009000212000082120000821200008212000083C
:1000A000212000082120000821200008212000082C
:1000B000212000082120000821200008212000081C
:1000C000212000082120000821200008212000080C
:1000D00021200008791B00082120000821200008A9
:1000E0002120000821200008212000080000000035
:1000F0000000000000000000000000000000000000
:0C01000000000000000000005FF808F1A3
:10010C000348044B834202D0034B03B1184770479A
:10011C005C0000205C000020000000000548064B3D
:10012C001B1AD90F01EBA301491002D0034B03B1E9
:10013C00184770475C0000205C00002000000000A5
:10014C0010B5064C237843B9FFF7DAFF044B13B113
:10015C000448AFF300800123237010BD5C00002025
:10016C00000000002420000808B5044B1BB1044912
:10017C000448AFF30080BDE80840CFE70000000062
:10018C00600000202420000870B50F4B0F4DAB42CF
:10019C00A3EB050607D00024B61055F8043B013438
:1001AC009847A642F9D801F037FF094D094B5E1B61
:1001BC00AB424FEAA60606D0002455F8043B0134A6
:1001CC009847A642F9D870BDD4200008D420000866
:1001DC00D4200008D8200008036A70B506460D46E6
:1001EC008468002B38D0A3891B0714D5236993B1DD
:1001FC00013DA36815F8011F013BA360D9B1002B89
:10020C0004DAA2699A420FDC0A290DD023685A1C21
:10021C0022601970EDE72146304600F07DFB002886
:10022C00E6D04FF0FF3070BD2246304600F084FE21
:10023C000130DED1F5E7002B08DA22460A213046E0
:10024C0000F07AFE0130ECD00A2070BD0A2223683F
:10025C00591C21601A70F7E700F0F4F8C3E700BFEF
:10026C00024B01461868FFF7B7BF00BF0C00002017
:10027C0000207047024A0349034800F02BBB00BF23
:10028C000000002055060008100000200C4B4168AF
:10029C0010B59942044601D000F0D6F9A168094B7B
:1002AC00994202D0204600F0CFF9E168064B994202
:1002BC0004D02046BDE8104000F0C6B910BD00BF08
:1002CC0078000020E000002048010020002070474A
:1002DC002DE9F84300250423294C2A490822C4F8A7
:1002EC00381104F15C002946DFF89C90DFF89C8003
:1002FC00274F284EC4E90335C4E90055C4E9055518
:10030C00A560656600F0C6F8234B0822294604F167
:10031C00C4006367C4E90849C4E90A87C4E91A55EB
:10032C00C4E91E5526632567C4F8CC50C4F8805028
:10033C0000F0B0F8194B2946C4F8DC30082204F15F
:10034C00680304F59670C4F88830C4E92398C4E9AE
:10035C002576C4E93455C4E93855C4F8D850C4F8E6
:10036C003451C4F8E85000F095F804F1D003C4E916
:10037C003D98C4E93F76C4F8F030BDE8F88300BF7F
:10038C007800002081020008051000082D100008DC
:10039C006D10000891100008090001001200020005
:1003AC00F8B5254B0646D3F83831002B3CD0234FFB
:1003BC00D7E90134013B04D51DE05A1C04F1680453
:1003CC0019D0B4F90C50013B002DF6D11C4B08226E
:1003DC002946C4E90155C4E90455E3606566256006
:1003EC00A56104F15C0000F055F8C4E90D55C4E9B1
:1003FC0012552046F8BD3D680DB12F46D8E74FF495
:10040C00D671304600F088F9044680B104230560AB
:10041C00294625460C304FF4D072A060636000F082
:10042C0039F83C602F46C3E7FFF752FFBFE70C23B8
:10043C0038603360DDE700BF78000020000000204A
:10044C000100FFFF036A03B17047044B044AD3F861
:10045C0038310262002BF7D13AE700BF7800002058
:10046C0099020008704700BF704700BF0020024A85
:10047C00024900F02FBA00BF000000207D020008E6
:10048C000020024A024900F025BA00BF00000020FB
:10049C00D902000870B5860747D0541E002A3ED0FA
:1004AC000346CAB201E0013C39D303F8012B9D0786
:1004BC00F9D1032C2CD9CDB205EB05250F2C1A46FE
:1004CC0005EB054534D9A4F1100C2CF00F0603F103
:1004DC00100EB6444FEA1C1CC2E90055C2E9025585
:1004EC0010327245F8D10CF1010214F00C0F03EB31
:1004FC00021204F00F0C13D0ACF1040323F003032D
:10050C000433134442F8045B9342FBD10CF0030414
:10051C002CB1C9B21C4403F8011BA342FBD170BD22
:10052C0064461346002CF4D1F9E703461446C0E7A1
:10053C00A446E1E7F8B5B1F90C300C461E070746A6
:10054C0039D44A68002A53DDE56A002D31D00022E7
:10055C003E683A6013F48052216A55D10123384623
:10056C00A847451C024663D0B4F90C30E56A216AF1
:10057C00580705D56368D21A636B0BB1236CD21A7A
:10058C0000233846A847421C40D0002223696260F1
:10059C002360A389DB0400D56065616B3E6041B1CB
:1005AC0004F14403994202D0384600F035F9002397
:1005BC0063630020F8BD0E69002EFAD09B0718BFAC
:1005CC0000230D6808BF4B690E60AD1B8B600CE0FF
:1005DC002B463246D4F828C03846216AE047B0F1A1
:1005EC00000CA5EB0C05664406DD002DF0DCE0E705
:1005FC000A6C002AA8DCDCE7B4F90C3043F04003A9
:10060C004FF0FF30A381F8BD626DB1E73968B4F9E2
:10061C000C301D29F2D80B4ACA40D507EED5002262
:10062C00626022692260DA04B7D50029B4D0B4E73D
:10063C003B68002B98D01D2B01D0162BDCD13E60D3
:10064C00B7E700BF010040200B69B3B110B50446F9
:10065C0082B008B1036A5BB1B1F90C3013B9002058
:10066C0002B010BD204602B0BDE81040FFF762BFDB
:10067C000191FFF7E7FE0199EEE70020704700BFFC
:10068C00B8B138B50D4A0369044615682BB10DB1E4
:10069C002B6A53B1B4F90C300BB9002038BD21468C
:1006AC002846BDE83840FFF745BF2846FFF7CAFE8D
:1006BC00F0E7034A0349044800F00CB90C00002091
:1006CC0000000020550600081000002070B5114EE7
:1006DC00054633680C46BBB12146284600F07AFC2F
:1006EC00431C01460CD0C41C24F00304A04205D0CA
:1006FC002846611A00F06EFC013001D0204670BD16
:10070C004FF0FF34204670BD194600F063FC30609A
:10071C00E2E700BFB40100202DE9F843CD1C25F021
:10072C00030508350C2D38BF0C25002D064618DBAB
:10073C00A94216D8DFF8DC8000F0C6F9D8F80420FE
:10074C00A2B1144603E0636822467BB11C462368C1
:10075C005B1BF8D40B2B1FD89442636854D05360A6
:10076C000CE00C2333600020BDE8F88329463046AA
:10077C00FFF7ACFF431C044619D00560304600F06F
:10078C00A5F904F10B00231D20F00700C21A1CBFB1
:10079C001B1AA350BDE8F88361199442256014BF5D
:1007AC005160C8F80410635163684B60E6E7D8F8F1
:1007BC0004701FB33C467F68002FFBD12368394679
:1007CC00304604EB030900F005FC814516D1236883
:1007DC003046ED1A2946FFF779FF01300ED0236819
:1007EC00D8F804202B442360536883B1A34203D070
:1007FC001A465B689C42FBD10023B0E70C233046C1
:10080C00336000F063F9AEE7C8F80430B6E7C8F817
:10081C000470B3E7B4010020002950D038B551F86A
:10082C00043C0C1F002BB8BFE418054600F04CF933
:10083C00274A13682BB1A3420CD921686018834254
:10084C002CD0284663601460BDE8384000F03EB9F7
:10085C00A3420FD81A465B68002BF9D111685018C7
:10086C00844217D02CD3636054602846BDE83840CE
:10087C0000F02CB911685018A04214D020D821686F
:10088C0060188342EFD118685B680844C4E9000320
:10089C005460EAE723680B441360E6E718685B686A
:1008AC0008442060CDE72068014450188342116051
:1008BC00DBD1D3E900040144C2E90014D5E7704749
:1008CC000C2328462B60BDE8384000F0FFB800BF71
:1008DC00B80100202DE9F8434FF0000980460F467F
:1008EC001646D6E90154013D10D4A389012B08D931
:1008FC00B4F90E30013304D021464046B84749EADA
:10090C000009013D6B1C04F16804EED13668002E21
:10091C00E7D14846BDE8F88338B52F4B05461B6830
:10092C000C4613B11A6A002A4BD0B4F90C301807D4
:10093C001CD5226922B313F0010107D00020616994
:10094C00A0604942A1613AB1002038BD980758BF58
:10095C006169A160002AF7D1190658BF1046F4D579
:10096C0043F04003A3814FF0FF3038BDD9062CD59E
:10097C005A0712D4226943F00803A381002ADAD162
:10098C0003F42071B1F5007FD5D02146284600F044
:10099C009FF8B4F90C302269CDE7616B51B104F1C9
:1009AC004402914204D02846FFF736FFB4F90C30CC
:1009BC00002262630021226923F02403C4E9002190
:1009CC00D9E71846FFF73EFDAFE7092243F0400395
:1009DC002A60A381C7E700BF0C000020844641EACF
:1009EC00000313F0030349D1403A23D30B6803608F
:1009FC004B6843608B688360CB68C3600B69036191
:100A0C004B6943618B698361CB69C3610B6A036278
:100A1C004B6A43628B6A8362CB6AC3620B6B036360
:100A2C004B6B43638B6B8363CB6BC3634030403145
:100A3C00403ADBD230320BD30B6803604B68436017
:100A4C008B688360CB68C36010301031103AF3D2DE
:100A5C000C3205D351F8043B40F8043B043AF9D26C
:100A6C00043208D0D2071CBF11F8013B00F8013B3F
:100A7C0001D30B8803806046704700BF082A13D34C
:100A8C008B07B1D010F00303AED0C3F10403D21A1C
:100A9C00DB071CBF11F8013B00F8013BA4D331F874
:100AAC00023B20F8023B9FE7043AD9D3013A11F8F4
:100ABC00013B00F8013BF9D20B7803704B78437083
:100ACC008B78837060467047704700BF704700BFDB
:100ADC0070B5B1F90C300C46990796B007D50122C8
:100AEC0004F14703C4E90432236016B070BDB4F9B5
:100AFC000E100546002929DB6A4600F0E9FE0028A5
:100B0C0022DB4FF480612846019EFFF705FE88B377
:100B1C00A38906F4704643F08003A3814FF48063ED
:100B2C00B6F5005FC4E904032060DED12846B4F9B1
:100B3C000E1000F079F80028D7D0A38923F0030316
:100B4C0043F00103A381D0E7B4F90C3013F0800F0C
:100B5C0014BF40264FF4806628463146FFF7DCFD73
:100B6C0040B1A389C4E9040643F080032060A3814B
:100B7C0016B070BDB4F90C309A05B6D4012123F02F
:100B8C00030304F1470243F00203C4E90421A381E7
:100B9C002260AAE770B50C46B1F90E101546002973
:100BAC001E4696B00FDB6A4600F092FE00280ADB68
:100BBC00019B4FF4806203F47043A3F50053B3FA26
:100BCC0083F35B0907E0A289002312F0800F14BFA6
:100BDC0040224FF48062002033602A6016B070BD52
:100BEC000EB400B582B003AB53F8042B81680193AB
:100BFC0000F068F802B05DF804EB03B0704700BF7A
:100C0C000FB400B5074A83B004AB106853F8042B3B
:100C1C008168019300F056F803B05DF804EB04B062
:100C2C00704700BF0C000020002238B5064D04466A
:100C3C0008462A6001F0B6F9431C00D038BD2B6879
:100C4C00002BFBD0236038BDBC0100209368013B16
:100C5C00002B936005DAD2F818C0634507DB0A292C
:100C6C0005D01368581C106008461970704700F0C6
:100C7C0063B900BF9BB1F8B5134406460F46541E2A
:100C8C005D1E01E0AC4208D03A46304614F8011F14
:100C9C00FFF7DCFF431CF5D1F8BD0020F8BD0020A8
:100CAC00704700BF936810B514461BB91846002353
:100CBC00636010BD00F0EAF90023A36000236360B9
:100CCC0010BD00BF2DE9F04FA1B08B4691461C46DC
:100CDC00049018B1036A002B00F01381BBF80C30A0
:100CEC00180740F18E80DBF81030002B00F0898063
:100CFC00002343F220020D9399F800300127824E15
:100D0C000794ADF83920002B73D04D4603E015F84D
:100D1C00013F002B7FD0252BF9D1B5EB090A7DD1F2
:100D2C002B78002B65D000234FF0FF320135CDE935
:100D3C00092308930B938DF863301E9306E0254628
:100D4C00089B801B07FA00F0034308932C460522EE
:100D5C0014F8011B304600F0E5FDA1460028EED149
:100D6C00089BD90644BF20228DF863201A0748BF80
:100D7C002B22297848BF8DF863202A2964D1079A41
:100D8C001168043200290792C0F296800B916978A1
:100D9C002E296FD05D4C0322204600F0C3FD38B1E4
:100DAC004022089B001B8240134309F10109089360
:100DBC0019F8011B062256488DF8381000F0B2FDC8
:100DCC0000287FD0534B002B69D007A900915A46BD
:100DDC000498514B08A9AFF300800390039B013397
:100DEC0007D00D9B039A13440D9399F80030002BF8
:100DFC008BD1BBF80C305B060AD40D9821B0BDE842
:100E0C00F08F59460498FFF787FD00283FF470AF28
:100E1C004FF0FF30F2E7B5EB090AEAD009F1FF38E1
:100E2C0005954546DDF8108001E0A2453ED92C46DB
:100E3C005A46404615F8011FFFF708FF02340130EF
:100E4C00A4EB0904F1D1D4E7A1F13002092A88BF3F
:100E5C00A9469DD80B9B00E00134217803EB83035A
:100E6C0002EB4303A1F13002092AF5D92E29A14640
:100E7C000B938FD199F801102A292DD1079B09F1D9
:100E8C0002001A680433002A0793B8BF4FF0FF33EF
:100E9C0099F8021009928146B8BF09937AE7079B2B
:100EAC00073323F00703083307939AE70D99059D41
:100EBC0051442B780D9134E7494243F002030B91D6
:100ECC00089364E707A900915A460498124B08A9A5
:100EDC0000F0BCFB039081E70023A1F13002092A4A
:100EEC0009F1010909933FF655AF19F8011F03EBFE
:100EFC00830302EB4303A1F13002092AF5D90993CC
:100F0C0048E7FFF79FFAE9E69020000898200008D0
:100F1C009C20000800000000810C00088C4600B5E5
:100F2C0086461346034A714610685DF804EB624628
:100F3C00FFF7C8BE0C000020F8B506460D46144657
:100F4C0010B1036A002B37D0A269A389A2601A07DB
:100F5C0019D52369BBB122686169D31AEDB29942E4
:100F6C002F4620DD0133A1680139A160511C21609D
:100F7C00157062699A420DD0A389DB0701D50A2D41
:100F8C0008D03846F8BD21463046FFF7C5FC38B9C5
:100F9C002369E0E721463046FFF756FB0028F0D0E6
:100FAC004FF0FF37EDE721463046FFF74DFB0028A9
:100FBC00F6D101232268D6E7FFF744FAC4E700BF55
:100FCC0003460A46024908681946FFF7B5BF00BF39
:100FDC000C000020002238B5064D044608462A6055
:100FEC0000F0E2FF431C00D038BD2B68002BFBD077
:100FFC00236038BDBC01002010B50C46B1F90E10B1
:10100C0000F04AFA002803DB636D0344636510BDEE
:10101C00A38923F48053A38110BD00BF0020704727
:10102C002DE9F0410C46B1F90C101F46CB050546D5
:10103C0016460BD421F48051A1813B4632462846FA
:10104C00B4F90E10BDE8F04100F0B8BCB4F90E10C4
:10105C000223002200F050FCB4F90C10EAE700BFA8
:10106C0010B50C46B1F90E1000F046FCB4F90C307A
:10107C00421C0EBF23F4805343F480536065A3815C
:10108C0010BD00BFB1F90E1000F076B99368002BBB
:10109C0000F0F0802DE9F04FB1F90CC090461CF037
:1010AC00080F81460C4683B02BD00B694BB31CF058
:1010BC000207D8F8006032D04FF0000A5546D4F839
:1010CC0028B0216AAB4FC5B1BD422B46524628BF52
:1010DC003B464846D847002840F3C280D8F8083031
:1010EC0082441B1A2D1AC8F80830002B00F0AE8071
:1010FC00D4F828B0216A002DE6D1D6E900A508362F
:10110C00E1E721464846FFF707FC002840F0AD8098
:10111C00B4F90CC0D8F800601CF00207CCD11CF05C
:10112C00010A63D157462368A16818468B46002FE5
:10113C0058D01CF4007F00F0B180B9420A4600F28E
:10114C00DD801CF4906F2FD0216962695D1A02EB6F
:10115C00420202EBD2726B1C52103B44934292BF80
:10116C0093469B461A461CF4806F00F0E6801146AD
:10117C004846FFF7D1FA002800F0F5802A4621698D
:10118C000190FFF72BFCA289019B22F4906242F0A4
:10119C008002A2815819C4F814B0ABEB05053A468D
:1011AC00BB462361A56020603D4600275146019255
:1011BC0000F0F4F8A1682368019AA1EB0B011A4422
:1011CC00A1602260D8F80830AA445B1BC8F808302C
:1011DC00002B3BD02368A16818468B46B4F90CC091
:1011EC00002FA6D1D6E900A708369EE73846BB46A5
:1011FC003D46002D40D0002845D03A46D4E904C3E2
:10120C002068AA4228BF2A466045A16804D901EB90
:10121C00030A524500F38280934272DC5A464846D8
:10122C00216AD4F828C0E047B0F1000A18DDB7EB0A
:10123C000A070FD00120D8F80830D344A3EB0A03D7
:10124C00A5EB0A05C8F80830002BD2D1002003B05A
:10125C00BDE8F08F21464846FFF7F6F90028EAD0A2
:10126C00B4F90C3043F04003A3814FF0FF3003B0CE
:10127C00BDE8F08F00207047756833460836002DA6
:10128C00FAD0D3F800B02A460A21584600F04AFB9F
:10129C00002865D00130A0EB0B07AEE722699A421B
:1012AC0014D36569BD4211D86FF00043BB4228BF0F
:1012BC003B4693FBF5F3524605FB03F34846A56A00
:1012CC00216AA847051ECBDD7F1B7BE7B94228BFEF
:1012DC0039460D46184651462A4600F05FF8A1687B
:1012EC002368491B2B44A16023600029ECD12146C3
:1012FC004846FFF7A9F90028E6D0B1E7BB463A46C5
:10130C0052E75946019200F049F8019AA3689246B7
:10131C009B1AA36023681344236088E759465246FE
:10132C0000F03CF823682146534448462360FFF7FD
:10133C008BF900283FF47BAF92E7484600F0C2F8E7
:10134C00034600287FF426AF48462169FFF764FA6C
:10135C000C22B4F90C30C9F8002023F0800381E78B
:10136C006A1C17464AE70C22B4F90C30C9F8002065
:10137C0078E700BF00FCFF7F002238B5064D04461D
:10138C0008462A6000F004FE431C00D038BD2B68D0
:10139C00002BFBD0236038BDBC01002088420ED945
:1013AC008B1883420BD900EB020C002A6DD06246DD
:1013BC0013F801CD994202F801CDF9D170470F2AEB
:1013CC000FD8034602F1FF3C002A5ED00CF1010C51
:1013DC00013B8C4411F8012B614503F8012FF9D125
:1013EC00704740EA01039B0750D1A2F1100370B57E
:1013FC0001F1200C23F00F0501F1100E00F1100487
:10140C00AC441B095EF8105C0EF1100E44F8105C35
:10141C005EF81C5C103444F81C5C5EF8185C44F8F4
:10142C00185C5EF8145CE64544F8145CEAD10133B0
:10143C0012F00C0F01EB031102F00F0400EB03137D
:10144C0028D08E46043C24F003064FEA940C1E442C
:10145C001C1F5EF8045B44F8045FB442F9D10CF134
:10146C00010402F0030203EB840301EB840102F19B
:10147C00FF3C4AB10CF1010C013B8C4411F8012BDF
:10148C00614503F8012FF9D170BD7047034602F195
:10149C00FF3C9BE72246EAE738B50C461146002292
:1014AC008446074D20462A601A46644600F06EFDBD
:1014BC00431C00D038BD2B68002BFBD0236038BDFB
:1014CC00BC0100202DE9F041144641B30AB3064695
:1014DC000D4600F089FA8442074602D8B4EB500F4F
:1014EC0013D821463046FFF717F9804650B1BC425D
:1014FC002246294628BF3A46FFF770FA294630465D
:10150C00FFF78AF94046BDE8F081A8464046BDE8A1
:10151C00F081A046FFF780F94046BDE8F081114606
:10152C00BDE8F041FFF7F8B82DE9F84F92461F4699
:10153C000A698B680C469A42B8BF1A46CAF8002052
:10154C0091F843300646DDF8289013B10132CAF801
:10155C000020226891065FD5DAF800300233CAF811
:10156C000030226812F0060F11461DD1E168994235
:10157C00D8BF114618DD4FF0000804F1190B05E037
:10158C00E568DAF80030ED1A45450CDD01235A46C2
:10159C0039463046C847013008F10108F0D14FF008
:1015AC00FF30BDE8F88F216894F84330003B18BF3A
:1015BC0001238A060AD53021E21882F8431094F8E8
:1015CC0045105A1C2244023382F8431039463046E7
:1015DC0004F14302C8470130E1D0D4E9022023686A
:1015EC00DAF8005003F00603042B21691BD08A4261
:1015FC0020DD4FF00008521A904400251A3401E007
:10160C00454517DA0123224639463046C847013092
:10161C0005F10105F4D1C2E712F0060F0DD0003B25
:10162C0018BF0123D2E7401B8A4220EAE078E2DCB3
:10163C000028E2DC0020BDE8F88FE168DAF8003021
:10164C009942D8BF114696DCAEE700BF2DE9F047B2
:10165C0017460A7E84B00C46064698460C9D01F14E
:10166C00430C002A35D0A2F15803D9B2202969D8ED
:10167C00202B67D8DFE813F0E600660066006600F2
:10168C006600660066006600660066006600AC00D8
:10169C0070006600660066006600700066006600FA
:1016AC006600660021008300C60066006600B60076
:1016BC006600830066006600EC002B682268181D2B
:1016CC006169286010061B6802D4520600F1E080A4
:1016DC0019600023E14623613B4621463046CDF894
:1016EC00008003AAFFF720FF013020D04A4639467C
:1016FC0030462369C047013019D02368E0689B0746
:10170C00DDF80C9018D5484516DD002504F1190AB2
:10171C0004E0E068A0EB0903AB420DDD0123524667
:10172C0039463046C047013005F10105F1D14FF083
:10173C00FF3004B0BDE8F0874845B8BF484604B058
:10174C00BDE8F087012084F8422004F1420900230F
:10175C00206184F84330BFE72A682368111D1806FE
:10176C00296002D4590600F19580106801460028C2
:10177C006268C0F293804FF00A0E534815E020685F
:10178C002B6810F0800F53F8041B02D1400648BFA1
:10179C0089B26F2A14BF4FF00A0E4FF0080E4A4858
:1017AC002B600023626884F84330002AA26051DB6E
:1017BC00236823F00403236000294BD1002A7BD13A
:1017CC00E146BEF1080F56D0ACEB0903236183E769
:1017DC002A680120116804322A6004F1420984F855
:1017EC004210B4E72B6800211A1D2A60D3F8009030
:1017FC006268484600F096F8002863D0A0EB090018
:10180C006060A4E7236843F02003236078222F480C
:10181C0084F845202A6813F0800F52F8041B03D17A
:10182C0013F0400F18BF89B22A60DA0744BF43F0A7
:10183C002003236019B9236823F0200323604FF0A1
:10184C00100EAEE75823204884F845302368E1E7B2
:10185C002368DBE77546E146B1FBF5F30A4605FB69
:10186C00131A194610F80A30AA4209F8013DF3D2AE
:10187C00BEF1080FA8D12368DD07A5D562682369DE
:10188C009A42A1DC302309F1FF3989F800309BE73B
:10189C0019801EE7B2F90010084668E72D20002ACF
:1018AC00A26084F8430002DB23F0040323600A25C2
:1018BC000548AE464942CEE7037804F1420984F864
:1018CC0042307EE7606842E7A4200008B820000898
:1018DC0070B50026074D0446084611462E6000F0F0
:1018EC005CFB431C00D070BD2B68002BFBD023602D
:1018FC0070BD00BFBC01002038B50C46114600225B
:10190C008446074D20462A601A46644600F043FB85
:10191C00431C00D038BD2B68002BFBD0236038BD96
:10192C00BC0100205FFA81FC810744D00346511EA4
:10193C0022B909E09A0709D0013905D31846027873
:10194C0001336245F6D170470020704718460329D1
:10195C000CD80029F8D00346014401E08B42F3D0A7
:10196C00184613F8012B6245F8D1704710B50CEBF3
:10197C000C24024604EB044402E00439032915D973
:10198C00104652F8043B6340A3F1013E2EEA0303D8
:10199C0013F0803FF1D00346014401E08B4208D0A4
:1019AC00184613F8012B6245F8D110BD10460029DA
:1019BC00F1D1002010BD1146C9E700BF38B50C4667
:1019CC00114600228446074D20462A601A4664467A
:1019DC0000F0CCFA431C00D038BD2B68002BFBD098
:1019EC00236038BDBC01002051F8043C181F002BAB
:1019FC00BCBF0B58C0187047194A136843F48033A6
:101A0C001360174B1B6813F4003FFAD0154B1422CC
:101A1C001A60A3F580535A685A605A6842F480627F
:101A2C005A605A685A605A6842F480325A605A684E
:101A3C0042F4E0125A601A6842F080721A60084B45
:101A4C001B6813F0007FFAD0054A536843F0020379
:101A5C005360034B5B6803F00C03082BF9D1704700
:101A6C000010024000200240072900D9043001F088
:101A7C000701890003684FF00F0C0CFA01FC23EAF4
:101A8C000C0C02F00F038B4043EA0C03036070470D
:101A9C0010B5124A936943F4804343F01D039361DC
:101AAC00D36943F40033D36100BF00BFA2F5883281
:101ABC00536843F004035360094C0B220621204663
:101ACC00FFF7D2FF042207212046FFF7CDFF0B22A0
:101ADC0002210448FFF7C8FF10BD00BF00100240F0
:101AEC00000C0140000801404FF0E023034A5A610A
:101AFC0000229A6107221A61704700BF3F1901004A
:101B0C0008B5FFF779FFFFF7C3FFFFF7EDFF08BD3F
:101B1C00044B1A6800E030BF024B1B689B1A8342CF
:101B2C00F9D37047C0010020024A136801331360D7
:101B3C00704700BFC001002010B40468426814F064
:101B4C00200F11D0D2B2B1F800349BB20133C3F3E1
:101B5C000903B1F8020480B2984205D0B1F8000430
:101B6C0080B20A54A1F8003410BC704708B5024981
:101B7C000248FFF7E1FF08BDC40100200038014016
:101B8C000346F8B10168E9B11E4A91421BD01E4AC6
:101B9C00C86820F40050C860596802EB51021868FC
:101BAC00B2FBF1F282601A7A022A0ED019680A6925
:101BBC0022F440520A611B68124A93420DD0134A18
:101BCC00934217D07047124AE2E719680A6922F467
:101BDC00405242F400520A61EDE7DA6842F40052D6
:101BEC0042F02C02DA600B4B102283F825232022C2
:101BFC005A607047DA6842F4005242F00802DA6028
:101C0C00E0E700BF003801400051250200440040CD
:101C1C0000A24A0400E100E0036813F0800FFBD03F
:101C2C0041607047F8B505460F461646002404E09F
:101C3C00395D2846FFF7F0FF0134B442F8D32B6826
:101C4C0013F0400FFBD0F8BD084B98420CD1084B59
:101C5C00B3F8002492B2B3F802349BB29A4201D08A
:101C6C000120704700207047002070470038014069
:101C7C00C40100200D4B984216D10D4BB3F8002433
:101C8C0092B2B3F802349BB29A42F6D0084AB2F838
:101C9C0002349BB2D05CB2F802349BB20133C3F372
:101CAC000903A2F802347047002070470038014045
:101CBC00C40100204FF0000C0FE011F80C3083EA47
:101CCC00102383EA1313000280B2184380EA4310F6
:101CDC001B039BB258400CF1010C6245EDD87047C8
:101CEC00F8B51C46069E5D1C9F1DBFB2BDF81C308E
:101CFC009F4225D89446ADB2AA233370AB019BB258
:101D0C00E1B10122134373701B0AB370F0703CB144
:101D1C00BCF1000F04D022466146301DFEF75EFE7A
:101D2C00221D92B231460020FFF7C4FFEB1CF05489
:101D3C000435C0F3072070553846F8BD0022E1E7A2
:101D4C000027F9E708B54FF401620021FEF7A2FB6A
:101D5C0008BD70B582B004460378052B6FD8DFE858
:101D6C0003F0030B11243339AA2901D0002007E01A
:101D7C0001230370002003E0418002230370002044
:101D8C0002B070BD438843EA012343809B098380E2
:101D9C00013B9BB2B3F5806F04D20020E08003239B
:101DAC002370EDE700202070EAE7C288531C9BB239
:101DBC00C380024411728288934201D00020DFE775
:101DCC00042303700020DBE7A0F80A14052303703A
:101DDC000020D5E7B0F80A5445EA0125A0F80A54CA
:101DEC00AA238DF8043043888DF805301B0A8DF832
:101DFC000630032201A90020FFF75CFFA6883246BB
:101E0C0004F10801FFF756FF854202D00020207034
:101E1C00B6E7237A84F80C34638803F0010384F862
:101E2C000D34721E92B2A4F80E2404F1090104F5CB
:101E3C008260FEF7D3FD002323700120A0E7002071
:101E4C009EE700B583B00192009100231A46194613
:101E5C00FFF746FF03B05DF804FB000030B58BB014
:101E6C00FFF74EFE374C07AB94E8070083E80700FA
:101E7C001846FFF785FE04AB0C3494E8070083E8A2
:101E8C0007001846FFF77CFE2F48FEF7E9F92F48AC
:101E9C00FFF758FF102269460020FFF7D2FF0446D7
:101EAC002B4D024669462846FFF7BCFE6420FFF71F
:101EBC002FFE224669462846FFF7B4FE2448FFF75A
:101ECC00C3FE0028FAD02248FFF7D4FE01461F4873
:101EDC00FFF73FFF0028F1D01C4B93F80C34002B7C
:101EEC00ECD11A4B03F58262B3F80E141948FEF7C5
:101EFC0087FE102269462C20FFF7A3FF04462246DA
:101F0C0069461348FFF78EFE6420FFF701FE104868
:101F1C00FFF79AFE0028F2D00D48FFF7ABFE014602
:101F2C000A48FFF716FF0028F1D0084B93F80C3441
:101F3C002C2BECD1054BB3F910140748FEF760FEBF
:101F4C00E5E700BF3C20000854200008C80500202D
:101F5C0000380140682000087C200008FEE7FEE7FE
:101F6C00FEE7FEE7FEE770477047704770B50E4618
:101F7C001546002404E0315D0348FFF74DFE0134A3
:101F8C00AC42F8DB284670BD00440040002070478E
:101F9C004FF0FF307047002070474FF400534B60F8
:101FAC0000207047012070470346064A126822B190
:101FBC00044A1068034413607047024A02491160D6
:101FCC00F6E700BFD80D0020E00D002000F023F84C
:101FDC000B480C490C4A002302E0D458C45004337B
:101FEC00C4188C42F9D3094A094C002301E0136050
:101FFC000432A242FBD3FEF7C7F8FFF72FFF70475E
:10200C00000000205C000020DC2000085C000020A8
:10201C00DC0D0020FEE77047F8B500BFF8BC08BC2B
:10202C009E467047F8B500BFF8BC08BC9E4670478A
:10203C000038014000100E00010000000044004078
:10204C0000C20100010000004C6944415220696E3D
:10205C00746572666163650D00000000436F6E6EFF
:10206C0065637465643A20252E2A730D0A000000FE
:10207C0044697374616E63653A20256420636D0D49
:10208C000A000000232D302B20000000686C4C004F
:10209C006566674546470000303132333435363794
:1020AC003839414243444546000000003031323358
:1020BC003435363738396162636465660000000078
:0820CC001CE9FF7F0100000088
:0420D400750100088A
:0420D8004D010008AE
:1020DC000000000003000000780000201000002029
:1020EC000000000078000020E000002048010020E3
:1020FC0000000000000000000000000000000000D4
:10210C0000000000000000000000000000000000C3
:10211C0000000000000000000000000000000000B3
:0C212C00000000000000000000000000A7
:0400000508001FD9F7
:00000001FF
