:020000040800F2
:10000000FF4F002009100008990F00089B0F0008FF
:100010009D0F00089F0F0008A10F000800000000BE
:10002000000000000000000000000000A30F000816
:10003000A50F000800000000A70F0008610E0008CF
:10004000511000085110000851100008511000080C
:1000500051100008511000085110000851100008FC
:1000600051100008511000085110000851100008EC
:1000700051100008511000085110000851100008DC
:1000800051100008511000085110000851100008CC
:1000900051100008511000085110000851100008BC
:1000A00051100008511000085110000851100008AC
:1000B000511000085110000851100008511000089C
:1000C000511000085110000851100008511000088C
:1000D00051100008A50E000851100008511000082A
:1000E00051100008511000085110000800000000D5
:1000F0000000000000000000000000000000000000
:0C01000000000000000000005FF808F1A3
:10010C000348044B834202D0034B03B1184770479A
:10011C005C0000205C000020000000000548064B3D
:10012C001B1AD90F01EBA301491002D0034B03B1E9
:10013C00184770475C0000205C00002000000000A5
:10014C0010B5064C237843B9FFF7DAFF044B13B113
:10015C000448AFF300800123237010BD5C00002025
:10016C00000000005410000808B5044B1BB10449F2
:10017C000448AFF30080BDE80840CFE70000000062
:10018C00600000205410000870B50F4B0F4DAB42AF
:10019C00A3EB050607D00024B61055F8043B013438
:1001AC009847A642F9D800F04FFF094D094B5E1B4A
:1001BC00AB424FEAA60606D0002455F8043B0134A6
:1001CC009847A642F9D870BD9C1000089C100008F6
:1001DC009C100008A0100008036A70B506460D4676
:1001EC008468002B38D0A3891B0714D5236993B1DD
:1001FC00013DA36815F8011F013BA360D9B1002B89
:10020C0004DAA2699A420FDC0A290DD023685A1C21
:10021C0022601970EDE72146304600F07DFB002886
:10022C00E6D04FF0FF3070BD2246304600F074FC33
:10023C000130DED1F5E7002B08DA22460A213046E0
:10024C0000F06AFC0130ECD00A2070BD0A22236851
:10025C00591C21601A70F7E700F0F4F8C3E700BFEF
:10026C00024B01461868FFF7B7BF00BF0C00002017
:10027C0000207047024A0349034800F02BBB00BF23
:10028C000000002055060008100000200C4B4168AF
:10029C0010B59942044601D000F0D6F9A168094B7B
:1002AC00994202D0204600F0CFF9E168064B994202
:1002BC0004D02046BDE8104000F0C6B910BD00BF08
:1002CC0078000020E000002048010020002070474A
:1002DC002DE9F84300250423294C2A490822C4F8A7
:1002EC00381104F15C002946DFF89C90DFF89C8003
:1002FC00274F284EC4E90335C4E90055C4E9055518
:10030C00A560656600F0C6F8234B0822294604F167
:10031C00C4006367C4E90849C4E90A87C4E91A55EB
:10032C00C4E91E5526632567C4F8CC50C4F8805028
:10033C0000F0B0F8194B2946C4F8DC30082204F15F
:10034C00680304F59670C4F88830C4E92398C4E9AE
:10035C002576C4E93455C4E93855C4F8D850C4F8E6
:10036C003451C4F8E85000F095F804F1D003C4E916
:10037C003D98C4E93F76C4F8F030BDE8F88300BF7F
:10038C007800002081020008E50B00080D0C000825
:10039C004D0C0008710C000809000100120002004D
:1003AC00F8B5254B0646D3F83831002B3CD0234FFB
:1003BC00D7E90134013B04D51DE05A1C04F1680453
:1003CC0019D0B4F90C50013B002DF6D11C4B08226E
:1003DC002946C4E90155C4E90455E3606566256006
:1003EC00A56104F15C0000F055F8C4E90D55C4E9B1
:1003FC0012552046F8BD3D680DB12F46D8E74FF495
:10040C00D671304600F088F9044680B104230560AB
:10041C00294625460C304FF4D072A060636000F082
:10042C0039F83C602F46C3E7FFF752FFBFE70C23B8
:10043C0038603360DDE700BF78000020000000204A
:10044C000100FFFF036A03B17047044B044AD3F861
:10045C0038310262002BF7D13AE700BF7800002058
:10046C0099020008704700BF704700BF0020024A85
:10047C00024900F02FBA00BF000000207D020008E6
:10048C000020024A024900F025BA00BF00000020FB
:10049C00D902000870B5860747D0541E002A3ED0FA
:1004AC000346CAB201E0013C39D303F8012B9D0786
:1004BC00F9D1032C2CD9CDB205EB05250F2C1A46FE
:1004CC0005EB054534D9A4F1100C2CF00F0603F103
:1004DC00100EB6444FEA1C1CC2E90055C2E9025585
:1004EC0010327245F8D10CF1010214F00C0F03EB31
:1004FC00021204F00F0C13D0ACF1040323F003032D
:10050C000433134442F8045B9342FBD10CF0030414
:10051C002CB1C9B21C4403F8011BA342FBD170BD22
:10052C0064461346002CF4D1F9E703461446C0E7A1
:10053C00A446E1E7F8B5B1F90C300C461E070746A6
:10054C0039D44A68002A53DDE56A002D31D00022E7
:10055C003E683A6013F48052216A55D10123384623
:10056C00A847451C024663D0B4F90C30E56A216AF1
:10057C00580705D56368D21A636B0BB1236CD21A7A
:10058C0000233846A847421C40D0002223696260F1
:10059C002360A389DB0400D56065616B3E6041B1CB
:1005AC0004F14403994202D0384600F035F9002397
:1005BC0063630020F8BD0E69002EFAD09B0718BFAC
:1005CC0000230D6808BF4B690E60AD1B8B600CE0FF
:1005DC002B463246D4F828C03846216AE047B0F1A1
:1005EC00000CA5EB0C05664406DD002DF0DCE0E705
:1005FC000A6C002AA8DCDCE7B4F90C3043F04003A9
:10060C004FF0FF30A381F8BD626DB1E73968B4F9E2
:10061C000C301D29F2D80B4ACA40D507EED5002262
:10062C00626022692260DA04B7D50029B4D0B4E73D
:10063C003B68002B98D01D2B01D0162BDCD13E60D3
:10064C00B7E700BF010040200B69B3B110B50446F9
:10065C0082B008B1036A5BB1B1F90C3013B9002058
:10066C0002B010BD204602B0BDE81040FFF762BFDB
:10067C000191FFF7E7FE0199EEE70020704700BFFC
:10068C00B8B138B50D4A0369044615682BB10DB1E4
:10069C002B6A53B1B4F90C300BB9002038BD21468C
:1006AC002846BDE83840FFF745BF2846FFF7CAFE8D
:1006BC00F0E7034A0349044800F00CB90C00002091
:1006CC0000000020550600081000002070B5114EE7
:1006DC00054633680C46BBB12146284600F06AFA41
:1006EC00431C01460CD0C41C24F00304A04205D0CA
:1006FC002846611A00F05EFA013001D0204670BD28
:10070C004FF0FF34204670BD194600F053FA3060AC
:10071C00E2E700BFB40100202DE9F843CD1C25F021
:10072C00030508350C2D38BF0C25002D064618DBAB
:10073C00A94216D8DFF8DC8000F050F9D8F8042074
:10074C00A2B1144603E0636822467BB11C462368C1
:10075C005B1BF8D40B2B1FD89442636854D05360A6
:10076C000CE00C2333600020BDE8F88329463046AA
:10077C00FFF7ACFF431C044619D00560304600F06F
:10078C002FF904F10B00231D20F00700C21A1CBF27
:10079C001B1AA350BDE8F88361199442256014BF5D
:1007AC005160C8F80410635163684B60E6E7D8F8F1
:1007BC0004701FB33C467F68002FFBD12368394679
:1007CC00304604EB030900F0F5F9814516D1236896
:1007DC003046ED1A2946FFF779FF01300ED0236819
:1007EC00D8F804202B442360536883B1A34203D070
:1007FC001A465B689C42FBD10023B0E70C233046C1
:10080C00336000F0EDF8AEE7C8F80430B6E7C8F88E
:10081C000470B3E7B4010020002950D038B551F86A
:10082C00043C0C1F002BB8BFE418054600F0D6F8AA
:10083C00274A13682BB1A3420CD921686018834254
:10084C002CD0284663601460BDE8384000F0C8B86E
:10085C00A3420FD81A465B68002BF9D111685018C7
:10086C00844217D02CD3636054602846BDE83840CE
:10087C0000F0B6B811685018A04214D020D82168E6
:10088C0060188342EFD118685B680844C4E9000320
:10089C005460EAE723680B441360E6E718685B686A
:1008AC0008442060CDE72068014450188342116051
:1008BC00DBD1D3E900040144C2E90014D5E7704749
:1008CC000C2328462B60BDE8384000F089B800BFE7
:1008DC00B80100202DE9F8434FF0000980460F467F
:1008EC001646D6E90154013D10D4A389012B08D931
:1008FC00B4F90E30013304D021464046B84749EADA
:10090C000009013D6B1C04F16804EED13668002E21
:10091C00E7D14846BDE8F88338B52F4B05461B6830
:10092C000C4613B11A6A002A4BD0B4F90C301807D4
:10093C001CD5226922B313F0010107D00020616994
:10094C00A0604942A1613AB1002038BD980758BF58
:10095C006169A160002AF7D1190658BF1046F4D579
:10096C0043F04003A3814FF0FF3038BDD9062CD59E
:10097C005A0712D4226943F00803A381002ADAD162
:10098C0003F42071B1F5007FD5D02146284600F044
:10099C0029F8B4F90C302269CDE7616B51B104F13F
:1009AC004402914204D02846FFF736FFB4F90C30CC
:1009BC00002262630021226923F02403C4E9002190
:1009CC00D9E71846FFF73EFDAFE7092243F0400395
:1009DC002A60A381C7E700BF0C000020704700BF4E
:1009EC00704700BF70B5B1F90C300C46990796B042
:1009FC0007D5012204F14703C4E90432236016B081
:100A0C0070BDB4F90E100546002929DB6A4600F0CA
:100A1C0055F9002822DB4FF480612846019EFFF730
:100A2C007BFE88B3A38906F4704643F08003A38150
:100A3C004FF48063B6F5005FC4E904032060DED197
:100A4C002846B4F90E1000F055F80028D7D0A38929
:100A5C0023F0030343F00103A381D0E7B4F90C3076
:100A6C0013F0800F14BF40264FF4806628463146A1
:100A7C00FFF752FE40B1A389C4E9040643F080039A
:100A8C002060A38116B070BDB4F90C309A05B6D4B1
:100A9C00012123F0030304F1470243F00203C4E9EC
:100AAC000421A3812260AAE770B50C46B1F90E109F
:100ABC00154600291E4696B00FDB6A4600F0FEF87C
:100ACC0000280ADB019B4FF4806203F47043A3F50A
:100ADC000053B3FA83F35B0907E0A289002312F0F9
:100AEC00800F14BF40224FF48062002033602A60D4
:100AFC0016B070BD002238B5064D044608462A6073
:100B0C0000F068FA431C00D038BD2B68002BFBD0DA
:100B1C00236038BDBC010020F8B506460D461446CE
:100B2C0010B1036A002B37D0A269A389A2601A07FF
:100B3C0019D52369BBB122686169D31AEDB2994208
:100B4C002F4620DD0133A1680139A160511C2160C1
:100B5C00157062699A420DD0A389DB0701D50A2D65
:100B6C0008D03846F8BD21463046FFF7D5FE38B9D7
:100B7C002369E0E721463046FFF766FD0028F0D0F8
:100B8C004FF0FF37EDE721463046FFF75DFD0028BB
:100B9C00F6D101232268D6E7FFF754FCC4E700BF67
:100BAC0003460A46024908681946FFF7B5BF00BF5D
:100BBC000C000020002238B5064D044608462A6079
:100BCC0000F00AFA431C00D038BD2B68002BFBD078
:100BDC00236038BDBC01002010B50C46B1F90E10D5
:100BEC0000F056F8002803DB636D0344636510BD09
:100BFC00A38923F48053A38110BD00BF002070474C
:100C0C002DE9F0410C46B1F90C101F46CB050546F9
:100C1C0016460BD421F48051A1813B46324628461E
:100C2C00B4F90E10BDE8F04100F072B8B4F90E1032
:100C3C000223002200F056F8B4F90C10EAE700BFCA
:100C4C0010B50C46B1F90E1000F04CF8B4F90C309C
:100C5C00421C0EBF23F4805343F480536065A38180
:100C6C0010BD00BFB1F90E1000F000B8002238B56D
:100C7C00064D044608462A6000F0A2F9431C00D039
:100C8C0038BD2B68002BFBD0236038BDBC01002085
:100C9C0038B50C46114600228446074D20462A6082
:100CAC001A46644600F08AF9431C00D038BD2B6804
:100CBC00002BFBD0236038BDBC01002070B5002692
:100CCC00074D0446084611462E6000F07EF9431C81
:100CDC0000D070BD2B68002BFBD0236070BD00BF13
:100CEC00BC01002038B50C46114600228446074D45
:100CFC0020462A601A46644600F065F9431C00D071
:100D0C0038BD2B68002BFBD0236038BDBC01002004
:100D1C0038B50C46114600228446074D20462A6001
:100D2C001A46644600F03AF9431C00D038BD2B68D3
:100D3C00002BFBD0236038BDBC010020194A13687E
:100D4C0043F480331360174B1B6813F4003FFAD045
:100D5C00154B14221A60A3F580535A685A605A68CE
:100D6C0042F480625A605A685A605A6842F480327F
:100D7C005A605A6842F4E0125A601A6842F0807263
:100D8C001A60084B1B6813F0007FFAD0054A5368B1
:100D9C0043F002035360034B5B6803F00C03082B16
:100DAC00F9D170470010024000200240072900D9F9
:100DBC00043001F00701890003684FF00F0C0CFAA6
:100DCC0001FC23EA0C0C02F00F038B4043EA0C03EA
:100DDC000360704710B5124A936943F4804343F0A3
:100DEC001D039361D36943F40033D36100BF00BF8B
:100DFC00A2F58832536843F004035360094C0B226C
:100E0C0006212046FFF7D2FF042207212046FFF7D8
:100E1C00CDFF0B2202210448FFF7C8FF10BD00BF15
:100E2C0000100240000C0140000801404FF0E0238C
:100E3C00034A5A6100229A6107221A61704700BF67
:100E4C003F19010008B5FFF779FFFFF7C3FFFFF764
:100E5C00EDFF08BD024A136801331360704700BFF1
:100E6C00C001002010B40468426814F0200F11D0A7
:100E7C00D2B2B1F800349BB20133C3F30903B1F819
:100E8C00020480B2984205D0B1F8000480B20A5432
:100E9C00A1F8003410BC704708B502490248FFF7AE
:100EAC00E1FF08BDC4010020003801400346F8B141
:100EBC000168E9B11E4A91421BD01E4AC86820F451
:100ECC000050C860596802EB51021868B2FBF1F28D
:100EDC0082601A7A022A0ED019680A6922F44052EA
:100EEC000A611B68124A93420DD0134A934217D0E1
:100EFC007047124AE2E719680A6922F4405242F438
:100F0C0000520A61EDE7DA6842F4005242F02C021A
:100F1C00DA600B4B102283F8252320225A6070478D
:100F2C00DA6842F4005242F00802DA60E0E700BFEF
:100F3C0000380140005125020044004000A24A0440
:100F4C0000E100E0036813F0800FFBD041607047B4
:100F5C0000B587B0FFF776FF0A4C03AB94E80700A7
:100F6C0083E807001846FFF7A1FF6B460C3494E8A2
:100F7C00070083E807001846FFF798FF0248FFF7C1
:100F8C006FF9FEE76C10000884100008FEE7FEE71E
:100F9C00FEE7FEE7FEE770477047704770B50E46F8
:100FAC001546002404E0315D0348FFF7CBFF013404
:100FBC00AC42F8DB284670BD00440040002070476E
:100FCC004FF0FF307047002070474FF400534B60D8
:100FDC0000207047012070470346064A126822B170
:100FEC00044A1068034413607047024A02491160B6
:100FFC00F6E700BFC8050020D005002000F023F85C
:10100C000B480C490C4A002302E0D458C45004335A
:10101C00C4188C42F9D3094A094C002301E013602F
:10102C000432A242FBD3FFF7AFF8FFF791FF7047F2
:10103C00000000205C000020A41000085C000020D0
:10104C00CC050020FEE77047F8B500BFF8BC08BC23
:10105C009E467047F8B500BFF8BC08BC9E4670476A
:10106C000038014000100E00010000000044004058
:10107C0000C20100010000004C6944415220696E1D
:10108C00746572666163652072656164790D000038
:04109C0075010008D2
:0410A0004D010008F6
:1010A4000000000003000000780000201000002071
:1010B4000000000078000020E0000020480100202B
:1010C400000000000000000000000000000000001C
:1010D400000000000000000000000000000000000C
:1010E40000000000000000000000000000000000FC
:0C10F400000000000000000000000000F0
:0400000508001009D6
:00000001FF
